{
  "_format": "hh-sol-artifact-1",
  "contractName": "CryptoCoder",
  "sourceName": "contracts/CryptoCoder.sol",
  "abi": [
    {
      "inputs": [],
      "stateMutability": "nonpayable",
      "type": "constructor"
    },
    {
      "anonymous": false,
      "inputs": [
        {
          "indexed": true,
          "internalType": "address",
          "name": "owner",
          "type": "address"
        },
        {
          "indexed": true,
          "internalType": "address",
          "name": "approved",
          "type": "address"
        },
        {
          "indexed": true,
          "internalType": "uint256",
          "name": "tokenId",
          "type": "uint256"
        }
      ],
      "name": "Approval",
      "type": "event"
    },
    {
      "anonymous": false,
      "inputs": [
        {
          "indexed": true,
          "internalType": "address",
          "name": "owner",
          "type": "address"
        },
        {
          "indexed": true,
          "internalType": "address",
          "name": "operator",
          "type": "address"
        },
        {
          "indexed": false,
          "internalType": "bool",
          "name": "approved",
          "type": "bool"
        }
      ],
      "name": "ApprovalForAll",
      "type": "event"
    },
    {
      "anonymous": false,
      "inputs": [
        {
          "indexed": true,
          "internalType": "address",
          "name": "from",
          "type": "address"
        },
        {
          "indexed": true,
          "internalType": "address",
          "name": "to",
          "type": "address"
        },
        {
          "indexed": true,
          "internalType": "uint256",
          "name": "tokenId",
          "type": "uint256"
        }
      ],
      "name": "Transfer",
      "type": "event"
    },
    {
      "inputs": [
        {
          "internalType": "address",
          "name": "to",
          "type": "address"
        },
        {
          "internalType": "uint256",
          "name": "tokenId",
          "type": "uint256"
        }
      ],
      "name": "approve",
      "outputs": [],
      "stateMutability": "nonpayable",
      "type": "function"
    },
    {
      "inputs": [
        {
          "internalType": "address",
          "name": "owner",
          "type": "address"
        }
      ],
      "name": "balanceOf",
      "outputs": [
        {
          "internalType": "uint256",
          "name": "",
          "type": "uint256"
        }
      ],
      "stateMutability": "view",
      "type": "function"
    },
    {
      "inputs": [
        {
          "internalType": "uint256",
          "name": "",
          "type": "uint256"
        }
      ],
      "name": "coders",
      "outputs": [
        {
          "internalType": "string",
          "name": "",
          "type": "string"
        }
      ],
      "stateMutability": "view",
      "type": "function"
    },
    {
      "inputs": [
        {
          "internalType": "uint256",
          "name": "tokenId",
          "type": "uint256"
        }
      ],
      "name": "getApproved",
      "outputs": [
        {
          "internalType": "address",
          "name": "",
          "type": "address"
        }
      ],
      "stateMutability": "view",
      "type": "function"
    },
    {
      "inputs": [
        {
          "internalType": "address",
          "name": "owner",
          "type": "address"
        },
        {
          "internalType": "address",
          "name": "operator",
          "type": "address"
        }
      ],
      "name": "isApprovedForAll",
      "outputs": [
        {
          "internalType": "bool",
          "name": "",
          "type": "bool"
        }
      ],
      "stateMutability": "view",
      "type": "function"
    },
    {
      "inputs": [
        {
          "internalType": "string",
          "name": "_coder",
          "type": "string"
        }
      ],
      "name": "mint",
      "outputs": [],
      "stateMutability": "nonpayable",
      "type": "function"
    },
    {
      "inputs": [],
      "name": "name",
      "outputs": [
        {
          "internalType": "string",
          "name": "",
          "type": "string"
        }
      ],
      "stateMutability": "view",
      "type": "function"
    },
    {
      "inputs": [
        {
          "internalType": "uint256",
          "name": "tokenId",
          "type": "uint256"
        }
      ],
      "name": "ownerOf",
      "outputs": [
        {
          "internalType": "address",
          "name": "",
          "type": "address"
        }
      ],
      "stateMutability": "view",
      "type": "function"
    },
    {
      "inputs": [
        {
          "internalType": "address",
          "name": "from",
          "type": "address"
        },
        {
          "internalType": "address",
          "name": "to",
          "type": "address"
        },
        {
          "internalType": "uint256",
          "name": "tokenId",
          "type": "uint256"
        }
      ],
      "name": "safeTransferFrom",
      "outputs": [],
      "stateMutability": "nonpayable",
      "type": "function"
    },
    {
      "inputs": [
        {
          "internalType": "address",
          "name": "from",
          "type": "address"
        },
        {
          "internalType": "address",
          "name": "to",
          "type": "address"
        },
        {
          "internalType": "uint256",
          "name": "tokenId",
          "type": "uint256"
        },
        {
          "internalType": "bytes",
          "name": "_data",
          "type": "bytes"
        }
      ],
      "name": "safeTransferFrom",
      "outputs": [],
      "stateMutability": "nonpayable",
      "type": "function"
    },
    {
      "inputs": [
        {
          "internalType": "address",
          "name": "operator",
          "type": "address"
        },
        {
          "internalType": "bool",
          "name": "approved",
          "type": "bool"
        }
      ],
      "name": "setApprovalForAll",
      "outputs": [],
      "stateMutability": "nonpayable",
      "type": "function"
    },
    {
      "inputs": [
        {
          "internalType": "bytes4",
          "name": "interfaceId",
          "type": "bytes4"
        }
      ],
      "name": "supportsInterface",
      "outputs": [
        {
          "internalType": "bool",
          "name": "",
          "type": "bool"
        }
      ],
      "stateMutability": "view",
      "type": "function"
    },
    {
      "inputs": [],
      "name": "symbol",
      "outputs": [
        {
          "internalType": "string",
          "name": "",
          "type": "string"
        }
      ],
      "stateMutability": "view",
      "type": "function"
    },
    {
      "inputs": [
        {
          "internalType": "uint256",
          "name": "index",
          "type": "uint256"
        }
      ],
      "name": "tokenByIndex",
      "outputs": [
        {
          "internalType": "uint256",
          "name": "",
          "type": "uint256"
        }
      ],
      "stateMutability": "view",
      "type": "function"
    },
    {
      "inputs": [
        {
          "internalType": "address",
          "name": "owner",
          "type": "address"
        },
        {
          "internalType": "uint256",
          "name": "index",
          "type": "uint256"
        }
      ],
      "name": "tokenOfOwnerByIndex",
      "outputs": [
        {
          "internalType": "uint256",
          "name": "",
          "type": "uint256"
        }
      ],
      "stateMutability": "view",
      "type": "function"
    },
    {
      "inputs": [
        {
          "internalType": "uint256",
          "name": "tokenId",
          "type": "uint256"
        }
      ],
      "name": "tokenURI",
      "outputs": [
        {
          "internalType": "string",
          "name": "",
          "type": "string"
        }
      ],
      "stateMutability": "view",
      "type": "function"
    },
    {
      "inputs": [],
      "name": "totalSupply",
      "outputs": [
        {
          "internalType": "uint256",
          "name": "",
          "type": "uint256"
        }
      ],
      "stateMutability": "view",
      "type": "function"
    },
    {
      "inputs": [
        {
          "internalType": "address",
          "name": "from",
          "type": "address"
        },
        {
          "internalType": "address",
          "name": "to",
          "type": "address"
        },
        {
          "internalType": "uint256",
          "name": "tokenId",
          "type": "uint256"
        }
      ],
      "name": "transferFrom",
      "outputs": [],
      "stateMutability": "nonpayable",
      "type": "function"
    }
  ],
  "bytecode": "0x60806040523480156200001157600080fd5b506040518060400160405280600b81526020017f43727970746f436f6465720000000000000000000000000000000000000000008152506040518060400160405280600281526020017f4343000000000000000000000000000000000000000000000000000000000000815250816000908051906020019062000096929190620000b8565b508060019080519060200190620000af929190620000b8565b505050620001cd565b828054620000c69062000168565b90600052602060002090601f016020900481019282620000ea576000855562000136565b82601f106200010557805160ff191683800117855562000136565b8280016001018555821562000136579182015b828111156200013557825182559160200191906001019062000118565b5b50905062000145919062000149565b5090565b5b80821115620001645760008160009055506001016200014a565b5090565b600060028204905060018216806200018157607f821691505b602082108114156200019857620001976200019e565b5b50919050565b7f4e487b7100000000000000000000000000000000000000000000000000000000600052602260045260246000fd5b61322c80620001dd6000396000f3fe608060405234801561001057600080fd5b50600436106101165760003560e01c80634f6ccce7116100a2578063a22cb46511610071578063a22cb46514610319578063b88d4fde14610335578063c87b56dd14610351578063d85d3d2714610381578063e985e9c51461039d57610116565b80634f6ccce71461026b5780636352211e1461029b57806370a08231146102cb57806395d89b41146102fb57610116565b806318160ddd116100e957806318160ddd146101b557806323b872dd146101d35780632f745c59146101ef57806342842e0e1461021f5780634cfa16f91461023b57610116565b806301ffc9a71461011b57806306fdde031461014b578063081812fc14610169578063095ea7b314610199575b600080fd5b61013560048036038101906101309190612281565b6103cd565b60405161014291906126df565b60405180910390f35b6101536103df565b60405161016091906126fa565b60405180910390f35b610183600480360381019061017e9190612314565b610471565b6040516101909190612678565b60405180910390f35b6101b360048036038101906101ae9190612245565b6104f6565b005b6101bd61060e565b6040516101ca919061291c565b60405180910390f35b6101ed60048036038101906101e8919061213f565b61061b565b005b61020960048036038101906102049190612245565b61067b565b604051610216919061291c565b60405180910390f35b6102396004803603810190610234919061213f565b610720565b005b61025560048036038101906102509190612314565b610740565b60405161026291906126fa565b60405180910390f35b61028560048036038101906102809190612314565b6107ec565b604051610292919061291c565b60405180910390f35b6102b560048036038101906102b09190612314565b610883565b6040516102c29190612678565b60405180910390f35b6102e560048036038101906102e091906120da565b610935565b6040516102f2919061291c565b60405180910390f35b6103036109ed565b60405161031091906126fa565b60405180910390f35b610333600480360381019061032e9190612209565b610a7f565b005b61034f600480360381019061034a919061218e565b610a95565b005b61036b60048036038101906103669190612314565b610af7565b60405161037891906126fa565b60405180910390f35b61039b600480360381019061039691906122d3565b610b9e565b005b6103b760048036038101906103b29190612103565b610c6b565b6040516103c491906126df565b60405180910390f35b60006103d882610cff565b9050919050565b6060600080546103ee90612b72565b80601f016020809104026020016040519081016040528092919081815260200182805461041a90612b72565b80156104675780601f1061043c57610100808354040283529160200191610467565b820191906000526020600020905b81548152906001019060200180831161044a57829003601f168201915b5050505050905090565b600061047c82610d79565b6104bb576040517f08c379a00000000000000000000000000000000000000000000000000000000081526004016104b29061287c565b60405180910390fd5b6004600083815260200190815260200160002060009054906101000a900473ffffffffffffffffffffffffffffffffffffffff169050919050565b600061050182610883565b90508073ffffffffffffffffffffffffffffffffffffffff168373ffffffffffffffffffffffffffffffffffffffff161415610572576040517f08c379a0000000000000000000000000000000000000000000000000000000008152600401610569906128bc565b60405180910390fd5b8073ffffffffffffffffffffffffffffffffffffffff16610591610de5565b73ffffffffffffffffffffffffffffffffffffffff1614806105c057506105bf816105ba610de5565b610c6b565b5b6105ff576040517f08c379a00000000000000000000000000000000000000000000000000000000081526004016105f6906127fc565b60405180910390fd5b6106098383610ded565b505050565b6000600880549050905090565b61062c610626610de5565b82610ea6565b61066b576040517f08c379a0000000000000000000000000000000000000000000000000000000008152600401610662906128dc565b60405180910390fd5b610676838383610f84565b505050565b600061068683610935565b82106106c7576040517f08c379a00000000000000000000000000000000000000000000000000000000081526004016106be9061271c565b60405180910390fd5b600660008473ffffffffffffffffffffffffffffffffffffffff1673ffffffffffffffffffffffffffffffffffffffff168152602001908152602001600020600083815260200190815260200160002054905092915050565b61073b83838360405180602001604052806000815250610a95565b505050565b600a818154811061075057600080fd5b90600052602060002001600091509050805461076b90612b72565b80601f016020809104026020016040519081016040528092919081815260200182805461079790612b72565b80156107e45780601f106107b9576101008083540402835291602001916107e4565b820191906000526020600020905b8154815290600101906020018083116107c757829003601f168201915b505050505081565b60006107f661060e565b8210610837576040517f08c379a000000000000000000000000000000000000000000000000000000000815260040161082e906128fc565b60405180910390fd5b60088281548110610871577f4e487b7100000000000000000000000000000000000000000000000000000000600052603260045260246000fd5b90600052602060002001549050919050565b6000806002600084815260200190815260200160002060009054906101000a900473ffffffffffffffffffffffffffffffffffffffff169050600073ffffffffffffffffffffffffffffffffffffffff168173ffffffffffffffffffffffffffffffffffffffff16141561092c576040517f08c379a00000000000000000000000000000000000000000000000000000000081526004016109239061283c565b60405180910390fd5b80915050919050565b60008073ffffffffffffffffffffffffffffffffffffffff168273ffffffffffffffffffffffffffffffffffffffff1614156109a6576040517f08c379a000000000000000000000000000000000000000000000000000000000815260040161099d9061281c565b60405180910390fd5b600360008373ffffffffffffffffffffffffffffffffffffffff1673ffffffffffffffffffffffffffffffffffffffff168152602001908152602001600020549050919050565b6060600180546109fc90612b72565b80601f0160208091040260200160405190810160405280929190818152602001828054610a2890612b72565b8015610a755780601f10610a4a57610100808354040283529160200191610a75565b820191906000526020600020905b815481529060010190602001808311610a5857829003601f168201915b5050505050905090565b610a91610a8a610de5565b83836111eb565b5050565b610aa6610aa0610de5565b83610ea6565b610ae5576040517f08c379a0000000000000000000000000000000000000000000000000000000008152600401610adc906128dc565b60405180910390fd5b610af184848484611358565b50505050565b6060610b0282610d79565b610b41576040517f08c379a0000000000000000000000000000000000000000000000000000000008152600401610b389061289c565b60405180910390fd5b6000610b4b6113b4565b90506000815111610b6b5760405180602001604052806000815250610b96565b80610b75846113cb565b604051602001610b86929190612654565b6040516020818303038152906040525b915050919050565b600b81604051610bae919061263d565b908152602001604051809103902060009054906101000a900460ff1615610bd457600080fd5b600a81908060018154018082558091505060019003906000526020600020016000909190919091509080519060200190610c0f929190611efe565b5060006001600a80549050610c249190612a88565b9050610c303382611578565b6001600b83604051610c42919061263d565b908152602001604051809103902060006101000a81548160ff0219169083151502179055505050565b6000600560008473ffffffffffffffffffffffffffffffffffffffff1673ffffffffffffffffffffffffffffffffffffffff16815260200190815260200160002060008373ffffffffffffffffffffffffffffffffffffffff1673ffffffffffffffffffffffffffffffffffffffff16815260200190815260200160002060009054906101000a900460ff16905092915050565b60007f780e9d63000000000000000000000000000000000000000000000000000000007bffffffffffffffffffffffffffffffffffffffffffffffffffffffff1916827bffffffffffffffffffffffffffffffffffffffffffffffffffffffff19161480610d725750610d7182611752565b5b9050919050565b60008073ffffffffffffffffffffffffffffffffffffffff166002600084815260200190815260200160002060009054906101000a900473ffffffffffffffffffffffffffffffffffffffff1673ffffffffffffffffffffffffffffffffffffffff1614159050919050565b600033905090565b816004600083815260200190815260200160002060006101000a81548173ffffffffffffffffffffffffffffffffffffffff021916908373ffffffffffffffffffffffffffffffffffffffff160217905550808273ffffffffffffffffffffffffffffffffffffffff16610e6083610883565b73ffffffffffffffffffffffffffffffffffffffff167f8c5be1e5ebec7d5bd14f71427d1e84f3dd0314c0f7b2291e5b200ac8c7c3b92560405160405180910390a45050565b6000610eb182610d79565b610ef0576040517f08c379a0000000000000000000000000000000000000000000000000000000008152600401610ee7906127dc565b60405180910390fd5b6000610efb83610883565b90508073ffffffffffffffffffffffffffffffffffffffff168473ffffffffffffffffffffffffffffffffffffffff161480610f6a57508373ffffffffffffffffffffffffffffffffffffffff16610f5284610471565b73ffffffffffffffffffffffffffffffffffffffff16145b80610f7b5750610f7a8185610c6b565b5b91505092915050565b8273ffffffffffffffffffffffffffffffffffffffff16610fa482610883565b73ffffffffffffffffffffffffffffffffffffffff1614610ffa576040517f08c379a0000000000000000000000000000000000000000000000000000000008152600401610ff19061275c565b60405180910390fd5b600073ffffffffffffffffffffffffffffffffffffffff168273ffffffffffffffffffffffffffffffffffffffff16141561106a576040517f08c379a00000000000000000000000000000000000000000000000000000000081526004016110619061279c565b60405180910390fd5b611075838383611834565b611080600082610ded565b6001600360008573ffffffffffffffffffffffffffffffffffffffff1673ffffffffffffffffffffffffffffffffffffffff16815260200190815260200160002060008282546110d09190612a88565b925050819055506001600360008473ffffffffffffffffffffffffffffffffffffffff1673ffffffffffffffffffffffffffffffffffffffff16815260200190815260200160002060008282546111279190612a01565b92505081905550816002600083815260200190815260200160002060006101000a81548173ffffffffffffffffffffffffffffffffffffffff021916908373ffffffffffffffffffffffffffffffffffffffff160217905550808273ffffffffffffffffffffffffffffffffffffffff168473ffffffffffffffffffffffffffffffffffffffff167fddf252ad1be2c89b69c2b068fc378daa952ba7f163c4a11628f55a4df523b3ef60405160405180910390a46111e6838383611844565b505050565b8173ffffffffffffffffffffffffffffffffffffffff168373ffffffffffffffffffffffffffffffffffffffff16141561125a576040517f08c379a0000000000000000000000000000000000000000000000000000000008152600401611251906127bc565b60405180910390fd5b80600560008573ffffffffffffffffffffffffffffffffffffffff1673ffffffffffffffffffffffffffffffffffffffff16815260200190815260200160002060008473ffffffffffffffffffffffffffffffffffffffff1673ffffffffffffffffffffffffffffffffffffffff16815260200190815260200160002060006101000a81548160ff0219169083151502179055508173ffffffffffffffffffffffffffffffffffffffff168373ffffffffffffffffffffffffffffffffffffffff167f17307eab39ab6107e8899845ad3d59bd9653f200f220920489ca2b5937696c318360405161134b91906126df565b60405180910390a3505050565b611363848484610f84565b61136f84848484611849565b6113ae576040517f08c379a00000000000000000000000000000000000000000000000000000000081526004016113a59061273c565b60405180910390fd5b50505050565b606060405180602001604052806000815250905090565b60606000821415611413576040518060400160405280600181526020017f30000000000000000000000000000000000000000000000000000000000000008152509050611573565b600082905060005b6000821461144557808061142e90612bd5565b915050600a8261143e9190612a57565b915061141b565b60008167ffffffffffffffff811115611487577f4e487b7100000000000000000000000000000000000000000000000000000000600052604160045260246000fd5b6040519080825280601f01601f1916602001820160405280156114b95781602001600182028036833780820191505090505b5090505b6000851461156c576001826114d29190612a88565b9150600a856114e19190612c1e565b60306114ed9190612a01565b60f81b818381518110611529577f4e487b7100000000000000000000000000000000000000000000000000000000600052603260045260246000fd5b60200101907effffffffffffffffffffffffffffffffffffffffffffffffffffffffffffff1916908160001a905350600a856115659190612a57565b94506114bd565b8093505050505b919050565b600073ffffffffffffffffffffffffffffffffffffffff168273ffffffffffffffffffffffffffffffffffffffff1614156115e8576040517f08c379a00000000000000000000000000000000000000000000000000000000081526004016115df9061285c565b60405180910390fd5b6115f181610d79565b15611631576040517f08c379a00000000000000000000000000000000000000000000000000000000081526004016116289061277c565b60405180910390fd5b61163d60008383611834565b6001600360008473ffffffffffffffffffffffffffffffffffffffff1673ffffffffffffffffffffffffffffffffffffffff168152602001908152602001600020600082825461168d9190612a01565b92505081905550816002600083815260200190815260200160002060006101000a81548173ffffffffffffffffffffffffffffffffffffffff021916908373ffffffffffffffffffffffffffffffffffffffff160217905550808273ffffffffffffffffffffffffffffffffffffffff16600073ffffffffffffffffffffffffffffffffffffffff167fddf252ad1be2c89b69c2b068fc378daa952ba7f163c4a11628f55a4df523b3ef60405160405180910390a461174e60008383611844565b5050565b60007f80ac58cd000000000000000000000000000000000000000000000000000000007bffffffffffffffffffffffffffffffffffffffffffffffffffffffff1916827bffffffffffffffffffffffffffffffffffffffffffffffffffffffff1916148061181d57507f5b5e139f000000000000000000000000000000000000000000000000000000007bffffffffffffffffffffffffffffffffffffffffffffffffffffffff1916827bffffffffffffffffffffffffffffffffffffffffffffffffffffffff1916145b8061182d575061182c826119e0565b5b9050919050565b61183f838383611a4a565b505050565b505050565b600061186a8473ffffffffffffffffffffffffffffffffffffffff16611b5e565b156119d3578373ffffffffffffffffffffffffffffffffffffffff1663150b7a02611893610de5565b8786866040518563ffffffff1660e01b81526004016118b59493929190612693565b602060405180830381600087803b1580156118cf57600080fd5b505af192505050801561190057506040513d601f19601f820116820180604052508101906118fd91906122aa565b60015b611983573d8060008114611930576040519150601f19603f3d011682016040523d82523d6000602084013e611935565b606091505b5060008151141561197b576040517f08c379a00000000000000000000000000000000000000000000000000000000081526004016119729061273c565b60405180910390fd5b805181602001fd5b63150b7a0260e01b7bffffffffffffffffffffffffffffffffffffffffffffffffffffffff1916817bffffffffffffffffffffffffffffffffffffffffffffffffffffffff1916149150506119d8565b600190505b949350505050565b60007f01ffc9a7000000000000000000000000000000000000000000000000000000007bffffffffffffffffffffffffffffffffffffffffffffffffffffffff1916827bffffffffffffffffffffffffffffffffffffffffffffffffffffffff1916149050919050565b611a55838383611b81565b600073ffffffffffffffffffffffffffffffffffffffff168373ffffffffffffffffffffffffffffffffffffffff161415611a9857611a9381611b86565b611ad7565b8173ffffffffffffffffffffffffffffffffffffffff168373ffffffffffffffffffffffffffffffffffffffff1614611ad657611ad58382611bcf565b5b5b600073ffffffffffffffffffffffffffffffffffffffff168273ffffffffffffffffffffffffffffffffffffffff161415611b1a57611b1581611d3c565b611b59565b8273ffffffffffffffffffffffffffffffffffffffff168273ffffffffffffffffffffffffffffffffffffffff1614611b5857611b578282611e7f565b5b5b505050565b6000808273ffffffffffffffffffffffffffffffffffffffff163b119050919050565b505050565b6008805490506009600083815260200190815260200160002081905550600881908060018154018082558091505060019003906000526020600020016000909190919091505550565b60006001611bdc84610935565b611be69190612a88565b9050600060076000848152602001908152602001600020549050818114611ccb576000600660008673ffffffffffffffffffffffffffffffffffffffff1673ffffffffffffffffffffffffffffffffffffffff168152602001908152602001600020600084815260200190815260200160002054905080600660008773ffffffffffffffffffffffffffffffffffffffff1673ffffffffffffffffffffffffffffffffffffffff168152602001908152602001600020600084815260200190815260200160002081905550816007600083815260200190815260200160002081905550505b6007600084815260200190815260200160002060009055600660008573ffffffffffffffffffffffffffffffffffffffff1673ffffffffffffffffffffffffffffffffffffffff16815260200190815260200160002060008381526020019081526020016000206000905550505050565b60006001600880549050611d509190612a88565b9050600060096000848152602001908152602001600020549050600060088381548110611da6577f4e487b7100000000000000000000000000000000000000000000000000000000600052603260045260246000fd5b906000526020600020015490508060088381548110611dee577f4e487b7100000000000000000000000000000000000000000000000000000000600052603260045260246000fd5b906000526020600020018190555081600960008381526020019081526020016000208190555060096000858152602001908152602001600020600090556008805480611e63577f4e487b7100000000000000000000000000000000000000000000000000000000600052603160045260246000fd5b6001900381819060005260206000200160009055905550505050565b6000611e8a83610935565b905081600660008573ffffffffffffffffffffffffffffffffffffffff1673ffffffffffffffffffffffffffffffffffffffff168152602001908152602001600020600083815260200190815260200160002081905550806007600084815260200190815260200160002081905550505050565b828054611f0a90612b72565b90600052602060002090601f016020900481019282611f2c5760008555611f73565b82601f10611f4557805160ff1916838001178555611f73565b82800160010185558215611f73579182015b82811115611f72578251825591602001919060010190611f57565b5b509050611f809190611f84565b5090565b5b80821115611f9d576000816000905550600101611f85565b5090565b6000611fb4611faf8461295c565b612937565b905082815260208101848484011115611fcc57600080fd5b611fd7848285612b30565b509392505050565b6000611ff2611fed8461298d565b612937565b90508281526020810184848401111561200a57600080fd5b612015848285612b30565b509392505050565b60008135905061202c8161319a565b92915050565b600081359050612041816131b1565b92915050565b600081359050612056816131c8565b92915050565b60008151905061206b816131c8565b92915050565b600082601f83011261208257600080fd5b8135612092848260208601611fa1565b91505092915050565b600082601f8301126120ac57600080fd5b81356120bc848260208601611fdf565b91505092915050565b6000813590506120d4816131df565b92915050565b6000602082840312156120ec57600080fd5b60006120fa8482850161201d565b91505092915050565b6000806040838503121561211657600080fd5b60006121248582860161201d565b92505060206121358582860161201d565b9150509250929050565b60008060006060848603121561215457600080fd5b60006121628682870161201d565b93505060206121738682870161201d565b9250506040612184868287016120c5565b9150509250925092565b600080600080608085870312156121a457600080fd5b60006121b28782880161201d565b94505060206121c38782880161201d565b93505060406121d4878288016120c5565b925050606085013567ffffffffffffffff8111156121f157600080fd5b6121fd87828801612071565b91505092959194509250565b6000806040838503121561221c57600080fd5b600061222a8582860161201d565b925050602061223b85828601612032565b9150509250929050565b6000806040838503121561225857600080fd5b60006122668582860161201d565b9250506020612277858286016120c5565b9150509250929050565b60006020828403121561229357600080fd5b60006122a184828501612047565b91505092915050565b6000602082840312156122bc57600080fd5b60006122ca8482850161205c565b91505092915050565b6000602082840312156122e557600080fd5b600082013567ffffffffffffffff8111156122ff57600080fd5b61230b8482850161209b565b91505092915050565b60006020828403121561232657600080fd5b6000612334848285016120c5565b91505092915050565b61234681612abc565b82525050565b61235581612ace565b82525050565b6000612366826129be565b61237081856129d4565b9350612380818560208601612b3f565b61238981612d0b565b840191505092915050565b600061239f826129c9565b6123a981856129e5565b93506123b9818560208601612b3f565b6123c281612d0b565b840191505092915050565b60006123d8826129c9565b6123e281856129f6565b93506123f2818560208601612b3f565b80840191505092915050565b600061240b602b836129e5565b915061241682612d1c565b604082019050919050565b600061242e6032836129e5565b915061243982612d6b565b604082019050919050565b60006124516025836129e5565b915061245c82612dba565b604082019050919050565b6000612474601c836129e5565b915061247f82612e09565b602082019050919050565b60006124976024836129e5565b91506124a282612e32565b604082019050919050565b60006124ba6019836129e5565b91506124c582612e81565b602082019050919050565b60006124dd602c836129e5565b91506124e882612eaa565b604082019050919050565b60006125006038836129e5565b915061250b82612ef9565b604082019050919050565b6000612523602a836129e5565b915061252e82612f48565b604082019050919050565b60006125466029836129e5565b915061255182612f97565b604082019050919050565b60006125696020836129e5565b915061257482612fe6565b602082019050919050565b600061258c602c836129e5565b91506125978261300f565b604082019050919050565b60006125af602f836129e5565b91506125ba8261305e565b604082019050919050565b60006125d26021836129e5565b91506125dd826130ad565b604082019050919050565b60006125f56031836129e5565b9150612600826130fc565b604082019050919050565b6000612618602c836129e5565b91506126238261314b565b604082019050919050565b61263781612b26565b82525050565b600061264982846123cd565b915081905092915050565b600061266082856123cd565b915061266c82846123cd565b91508190509392505050565b600060208201905061268d600083018461233d565b92915050565b60006080820190506126a8600083018761233d565b6126b5602083018661233d565b6126c2604083018561262e565b81810360608301526126d4818461235b565b905095945050505050565b60006020820190506126f4600083018461234c565b92915050565b600060208201905081810360008301526127148184612394565b905092915050565b60006020820190508181036000830152612735816123fe565b9050919050565b6000602082019050818103600083015261275581612421565b9050919050565b6000602082019050818103600083015261277581612444565b9050919050565b6000602082019050818103600083015261279581612467565b9050919050565b600060208201905081810360008301526127b58161248a565b9050919050565b600060208201905081810360008301526127d5816124ad565b9050919050565b600060208201905081810360008301526127f5816124d0565b9050919050565b60006020820190508181036000830152612815816124f3565b9050919050565b6000602082019050818103600083015261283581612516565b9050919050565b6000602082019050818103600083015261285581612539565b9050919050565b600060208201905081810360008301526128758161255c565b9050919050565b600060208201905081810360008301526128958161257f565b9050919050565b600060208201905081810360008301526128b5816125a2565b9050919050565b600060208201905081810360008301526128d5816125c5565b9050919050565b600060208201905081810360008301526128f5816125e8565b9050919050565b600060208201905081810360008301526129158161260b565b9050919050565b6000602082019050612931600083018461262e565b92915050565b6000612941612952565b905061294d8282612ba4565b919050565b6000604051905090565b600067ffffffffffffffff82111561297757612976612cdc565b5b61298082612d0b565b9050602081019050919050565b600067ffffffffffffffff8211156129a8576129a7612cdc565b5b6129b182612d0b565b9050602081019050919050565b600081519050919050565b600081519050919050565b600082825260208201905092915050565b600082825260208201905092915050565b600081905092915050565b6000612a0c82612b26565b9150612a1783612b26565b9250827fffffffffffffffffffffffffffffffffffffffffffffffffffffffffffffffff03821115612a4c57612a4b612c4f565b5b828201905092915050565b6000612a6282612b26565b9150612a6d83612b26565b925082612a7d57612a7c612c7e565b5b828204905092915050565b6000612a9382612b26565b9150612a9e83612b26565b925082821015612ab157612ab0612c4f565b5b828203905092915050565b6000612ac782612b06565b9050919050565b60008115159050919050565b60007fffffffff0000000000000000000000000000000000000000000000000000000082169050919050565b600073ffffffffffffffffffffffffffffffffffffffff82169050919050565b6000819050919050565b82818337600083830152505050565b60005b83811015612b5d578082015181840152602081019050612b42565b83811115612b6c576000848401525b50505050565b60006002820490506001821680612b8a57607f821691505b60208210811415612b9e57612b9d612cad565b5b50919050565b612bad82612d0b565b810181811067ffffffffffffffff82111715612bcc57612bcb612cdc565b5b80604052505050565b6000612be082612b26565b91507fffffffffffffffffffffffffffffffffffffffffffffffffffffffffffffffff821415612c1357612c12612c4f565b5b600182019050919050565b6000612c2982612b26565b9150612c3483612b26565b925082612c4457612c43612c7e565b5b828206905092915050565b7f4e487b7100000000000000000000000000000000000000000000000000000000600052601160045260246000fd5b7f4e487b7100000000000000000000000000000000000000000000000000000000600052601260045260246000fd5b7f4e487b7100000000000000000000000000000000000000000000000000000000600052602260045260246000fd5b7f4e487b7100000000000000000000000000000000000000000000000000000000600052604160045260246000fd5b6000601f19601f8301169050919050565b7f455243373231456e756d657261626c653a206f776e657220696e646578206f7560008201527f74206f6620626f756e6473000000000000000000000000000000000000000000602082015250565b7f4552433732313a207472616e7366657220746f206e6f6e20455243373231526560008201527f63656976657220696d706c656d656e7465720000000000000000000000000000602082015250565b7f4552433732313a207472616e736665722066726f6d20696e636f72726563742060008201527f6f776e6572000000000000000000000000000000000000000000000000000000602082015250565b7f4552433732313a20746f6b656e20616c7265616479206d696e74656400000000600082015250565b7f4552433732313a207472616e7366657220746f20746865207a65726f2061646460008201527f7265737300000000000000000000000000000000000000000000000000000000602082015250565b7f4552433732313a20617070726f766520746f2063616c6c657200000000000000600082015250565b7f4552433732313a206f70657261746f7220717565727920666f72206e6f6e657860008201527f697374656e7420746f6b656e0000000000000000000000000000000000000000602082015250565b7f4552433732313a20617070726f76652063616c6c6572206973206e6f74206f7760008201527f6e6572206e6f7220617070726f76656420666f7220616c6c0000000000000000602082015250565b7f4552433732313a2062616c616e636520717565727920666f7220746865207a6560008201527f726f206164647265737300000000000000000000000000000000000000000000602082015250565b7f4552433732313a206f776e657220717565727920666f72206e6f6e657869737460008201527f656e7420746f6b656e0000000000000000000000000000000000000000000000602082015250565b7f4552433732313a206d696e7420746f20746865207a65726f2061646472657373600082015250565b7f4552433732313a20617070726f76656420717565727920666f72206e6f6e657860008201527f697374656e7420746f6b656e0000000000000000000000000000000000000000602082015250565b7f4552433732314d657461646174613a2055524920717565727920666f72206e6f60008201527f6e6578697374656e7420746f6b656e0000000000000000000000000000000000602082015250565b7f4552433732313a20617070726f76616c20746f2063757272656e74206f776e6560008201527f7200000000000000000000000000000000000000000000000000000000000000602082015250565b7f4552433732313a207472616e736665722063616c6c6572206973206e6f74206f60008201527f776e6572206e6f7220617070726f766564000000000000000000000000000000602082015250565b7f455243373231456e756d657261626c653a20676c6f62616c20696e646578206f60008201527f7574206f6620626f756e64730000000000000000000000000000000000000000602082015250565b6131a381612abc565b81146131ae57600080fd5b50565b6131ba81612ace565b81146131c557600080fd5b50565b6131d181612ada565b81146131dc57600080fd5b50565b6131e881612b26565b81146131f357600080fd5b5056fea2646970667358221220113081042758f637ca2a2b40d69a269121c3060c61502837e92279743754092d64736f6c63430008040033",
  "linkReferences": {},
  "deployedLinkReferences": {}
}